{
  "contractName": "Voting",
  "abi": [
    {
      "constant": false,
      "inputs": [],
      "name": "vote",
      "outputs": [],
      "payable": false,
      "stateMutability": "nonpayable",
      "type": "function"
    },
    {
      "constant": true,
      "inputs": [],
      "name": "voteCount",
      "outputs": [
        {
          "name": "",
          "type": "uint8"
        }
      ],
      "payable": false,
      "stateMutability": "view",
      "type": "function"
    },
    {
      "constant": true,
      "inputs": [],
      "name": "getVoteCount",
      "outputs": [
        {
          "name": "",
          "type": "uint8"
        }
      ],
      "payable": false,
      "stateMutability": "view",
      "type": "function"
    }
  ],
  "bytecode": "0x606060405260008060006101000a81548160ff021916908360ff160217905550341561002a57600080fd5b610152806100396000396000f300606060405260043610610057576000357c0100000000000000000000000000000000000000000000000000000000900463ffffffff168063632a9a521461005c578063c638407114610071578063e7b3387c146100a0575b600080fd5b341561006757600080fd5b61006f6100cf565b005b341561007c57600080fd5b6100846100fe565b604051808260ff1660ff16815260200191505060405180910390f35b34156100ab57600080fd5b6100b3610110565b604051808260ff1660ff16815260200191505060405180910390f35b60016000808282829054906101000a900460ff160192506101000a81548160ff021916908360ff160217905550565b6000809054906101000a900460ff1681565b60008060009054906101000a900460ff169050905600a165627a7a72305820101131ca71fe281faf9016b60f47358e2e98a9c698c1b596775e58cc11f4eaf60029",
  "source": "pragma solidity ^0.4.18;\n\ncontract Voting {\n\n\tuint8 public voteCount = 0;\n\n\tfunction getVoteCount() \n\t\tpublic\n\t\tview\n\t\treturns (uint8) \n\t{\n\t  return voteCount;\n\t}\n\n\tfunction vote() public {\n\t\tvoteCount += 1;\n\t}\n\n}",
  "sourcePath": "/Users/sajjon/Developer/Solidity/DecentralizedCamp/2017_november/contracts/Voting.sol",
  "compiler": {
    "name": "solc",
    "version": "0.4.18+commit.9cf6e910.Emscripten.clang"
  },
  "schemaVersion": "1.0.1",
  "updatedAt": "2017-11-18T15:21:04.703Z"
}