{
  "contractName": "Voting",
  "abi": [
    {
      "constant": true,
      "inputs": [
        {
          "name": "",
          "type": "bytes32"
        }
      ],
      "name": "getMax",
      "outputs": [
        {
          "name": "",
          "type": "bytes32",
          "components": [
            {
              "name": "name",
              "type": "bytes32"
            },
            {
              "name": "namehash",
              "type": "bytes32"
            },
            {
              "name": "count",
              "type": "uint256"
            }
          ]
        },
        {
          "name": "",
          "type": "uint256"
        }
      ],
      "payable": false,
      "stateMutability": "view",
      "type": "function"
    },
    {
      "constant": true,
      "inputs": [
        {
          "name": "",
          "type": "uint256"
        }
      ],
      "name": "parties",
      "outputs": [
        {
          "name": "name",
          "type": "bytes32"
        },
        {
          "name": "namehash",
          "type": "bytes32"
        },
        {
          "name": "count",
          "type": "uint256"
        }
      ],
      "payable": false,
      "stateMutability": "view",
      "type": "function"
    },
    {
      "constant": false,
      "inputs": [
        {
          "name": "name",
          "type": "bytes32"
        }
      ],
      "name": "vote",
      "outputs": [
        {
          "name": "",
          "type": "bytes32"
        },
        {
          "name": "voteCount",
          "type": "uint256"
        }
      ],
      "payable": false,
      "stateMutability": "nonpayable",
      "type": "function"
    },
    {
      "constant": true,
      "inputs": [
        {
          "name": "",
          "type": "uint256"
        }
      ],
      "name": "parties",
      "outputs": [
        {
          "name": "name",
          "type": "bytes32",
          "components": [
            {
              "name": "name",
              "type": "bytes16"
            },
            {
              "name": "voteCount",
              "type": "uint256"
            }
          ]
        },
        {
          "name": "voteCount",
          "type": "uint256"
        }
      ],
      "payable": false,
      "stateMutability": "view",
      "type": "function"
    },
    {
      "inputs": [
        {
          "name": "partyName",
          "type": "bytes32"
        }
      ],
      "payable": false,
      "stateMutability": "view",
      "type": "function",
      "constant": true,
      "name": "getVoteCountForParty",
      "outputs": [
        {
          "components": [
            {
              "name": "name",
              "type": "bytes32"
            },
            {
              "name": "voteCount",
              "type": "uint256"
            }
          ],
          "name": "",
          "type": "uint256"
        }
      ]
    },
    {
      "inputs": [
        {
          "name": "partyNames",
          "type": "bytes32[]"
        }
      ],
      "payable": false,
      "stateMutability": "nonpayable",
      "type": "constructor"
    }
  ],
  "bytecode": "0x6060604052341561000f57600080fd5b6103de8061001e6000396000f300606060405260043610610057576000357c0100000000000000000000000000000000000000000000000000000000900463ffffffff1680633075f5521461005c57806370651a1814610094578063a69beaba146100e9575b600080fd5b341561006757600080fd5b61006f610110565b6040518083600019166000191681526020018281526020019250505060405180910390f35b341561009f57600080fd5b6100b560048080359060200190919050506101ba565b6040518084600019166000191681526020018360001916600019168152602001828152602001935050505060405180910390f35b34156100f457600080fd5b61010e6004808035600019169060200190919050506101f3565b005b600080600080600080925060009150600090505b6000805490508110156101ad578260008281548110151561014157fe5b90600052602060002090600302016002015411156101a05760008181548110151561016857fe5b906000526020600020906003020160020154925060008181548110151561018b57fe5b90600052602060002090600302016000015491505b8080600101915050610124565b8183945094505050509091565b6000818154811015156101c957fe5b90600052602060002090600302016000915090508060000154908060010154908060020154905083565b6000806000836040518082600019166000191681526020019150506040518091039020925060009150600090505b6000805490508110156102a357826000191660008281548110151561024257fe5b90600052602060002090600302016001015460001916141561029657600160008281548110151561026f57fe5b906000526020600020906003020160020160008282540192505081905550600191506102a3565b8080600101915050610221565b81151561034357600080548060010182816102be9190610349565b9160005260206000209060030201600060606040519081016040528088600019168152602001886040518082600019166000191681526020019150506040518091039020600019168152602001600181525090919091506000820151816000019060001916905560208201518160010190600019169055604082015181600201555050505b50505050565b81548183558181151161037657600302816003028360005260206000209182019101610375919061037b565b5b505050565b6103af91905b808211156103ab576000808201600090556001820160009055600282016000905550600301610381565b5090565b905600a165627a7a72305820cae24c764e23e9cf0670285fb6986d2db693f9507b4423cf346941f24ffaebf00029",
  "source": "pragma solidity ^0.4.18;\r\n\r\ncontract Voting {\r\n\r\n\tstruct Party {\r\n        bytes32 name;\r\n        bytes32 namehash;\r\n        uint count;\r\n    }\r\n    \r\n\tParty[] public parties;\r\n\r\n    function vote(bytes32 name) public {\r\n        bytes32 namehash = keccak256(name);\r\n        \r\n        //increment this vote\r\n        bool found = false;\r\n        for ( uint i=0 ; i<parties.length ; i++ ) {\r\n            if(parties[i].namehash==namehash) {\r\n                parties[i].count+=1;\r\n                found=true;\r\n\t\t\t\tbreak;\r\n            }\r\n        }\r\n\r\n        if (!found) {\r\n            parties.push(\r\n                Party({\r\n                    name: name,\r\n                    namehash: keccak256(name),\r\n                    count: 1\r\n                })\r\n            );\r\n        }\r\n    }\r\n\r\n    function getMax() view returns (bytes32,uint) {\r\n        uint max = 0;\r\n\t\tbytes32 maxname = \"\";\r\n\t\tfor ( uint i=0; i<parties.length; i++) {\r\n\t\t\tif (parties[i].count>max) {\r\n\t\t\t\tmax = parties[i].count;\r\n\t\t\t\tmaxname = parties[i].name;\r\n\t\t\t}\r\n\t\t}\r\n\t\t\r\n\t\treturn (maxname,max);\r\n    }\r\n}",
  "sourcePath": "/VotingWithEthereum/contracts/Voting.sol",
  "compiler": {
    "name": "solc",
    "version": "0.4.18+commit.9cf6e910.Emscripten.clang"
  },
  "schemaVersion": "1.0.1",
  "updatedAt": "2017-11-18T21:43:20.781Z"
}