{
  "contractName": "Voting",
  "abi": [
    {
      "constant": false,
      "inputs": [],
      "name": "vote",
      "outputs": [],
      "payable": false,
      "stateMutability": "nonpayable",
      "type": "function"
    }
  ],
  "bytecode": "0x60606040523415600e57600080fd5b60948061001c6000396000f300606060405260043610603f576000357c0100000000000000000000000000000000000000000000000000000000900463ffffffff168063632a9a52146044575b600080fd5b3415604e57600080fd5b60546056565b005b600160008082825401925050819055505600a165627a7a72305820d41da1c84991ea500a213913949b9ce1569db1bb9e4e2f03aea5aaadea2b59760029",
  "source": "pragma solidity ^0.4.11;\n\ncontract Voting {\n\n\tuint voteCount;\n\n\tfunction vote() public {\n\t\tvoteCount += 1;\n\t}\n\n}",
  "sourcePath": "/Users/sajjon/Developer/Solidity/DecentralizedCamp/2017_november/contracts/Voting.sol",
  "compiler": {
    "name": "solc",
    "version": "0.4.18+commit.9cf6e910.Emscripten.clang"
  },
  "schemaVersion": "1.0.1",
  "updatedAt": "2017-11-18T14:40:57.900Z"
}