{
  "contractName": "Voting",
  "abi": [
    {
      "constant": true,
      "inputs": [
        {
          "name": "",
          "type": "bytes32"
        }
      ],
      "name": "partyByName",
      "outputs": [
        {
          "name": "name",
          "type": "bytes32"
        },
        {
          "name": "voteCount",
          "type": "uint256"
        }
      ],
      "payable": false,
      "stateMutability": "view",
      "type": "function"
    },
    {
      "constant": false,
      "inputs": [
        {
          "name": "partyName",
          "type": "bytes32"
        }
      ],
      "name": "voteForParty",
      "outputs": [
        {
          "name": "name",
          "type": "bytes16"
        },
        {
          "name": "voteCount",
          "type": "uint256"
        }
      ],
      "payable": false,
      "stateMutability": "nonpayable",
      "type": "function"
    },
    {
      "constant": true,
      "inputs": [
        {
          "name": "partyName",
          "type": "bytes32"
        }
      ],
      "name": "getName",
      "outputs": [
        {
          "name": "",
          "type": "bytes32"
        },
        {
          "name": "voteCount",
          "type": "uint256"
        }
      ],
      "payable": false,
      "stateMutability": "view",
      "type": "function"
    },
    {
      "constant": true,
      "inputs": [
        {
          "name": "",
          "type": "uint256"
        }
      ],
      "name": "parties",
      "outputs": [
        {
          "name": "name",
          "type": "bytes32",
          "components": [
            {
              "name": "name",
              "type": "bytes16"
            },
            {
              "name": "voteCount",
              "type": "uint256"
            }
          ]
        },
        {
          "name": "voteCount",
          "type": "uint256"
        }
      ],
      "payable": false,
      "stateMutability": "view",
      "type": "function"
    },
    {
      "inputs": [
        {
          "name": "partyName",
          "type": "bytes32"
        }
      ],
      "payable": false,
      "stateMutability": "view",
      "type": "function",
      "constant": true,
      "name": "getVoteCountForParty",
      "outputs": [
        {
          "components": [
            {
              "name": "name",
              "type": "bytes32"
            },
            {
              "name": "voteCount",
              "type": "uint256"
            }
          ],
          "name": "",
          "type": "uint256"
        }
      ]
    },
    {
      "inputs": [
        {
          "name": "partyNames",
          "type": "bytes32[]"
        }
      ],
      "payable": false,
      "stateMutability": "nonpayable",
      "type": "constructor"
    }
  ],
  "bytecode": "0x6060604052341561000f57600080fd5b6040516104073803806104078339810160405280805182019190505060008090505b81518110156100be576000805480600101828161004e91906100c5565b916000526020600020906002020160006040805190810160405280868681518110151561007757fe5b906020019060200201516000191681526020016000815250909190915060008201518160000190600019169055602082015181600101555050508080600101915050610031565b5050610126565b8154818355818115116100f2576002028160020283600052602060002091820191016100f191906100f7565b5b505050565b61012391905b8082111561011f576000808201600090556001820160009055506002016100fd565b5090565b90565b6102d2806101356000396000f30060606040526004361061006d576000357c0100000000000000000000000000000000000000000000000000000000900463ffffffff16806321ea103f146100725780632c82b24b146100bc57806354b8d5e3146100e357806370651a18146101265780639df6c37e1461016c575b600080fd5b341561007d57600080fd5b6100976004808035600019169060200190919050506101a7565b6040518083600019166000191681526020018281526020019250505060405180910390f35b34156100c757600080fd5b6100e16004808035600019169060200190919050506101cb565b005b34156100ee57600080fd5b610108600480803560001916906020019091905050610223565b60405180826000191660001916815260200191505060405180910390f35b341561013157600080fd5b610147600480803590602001909190505061024b565b6040518083600019166000191681526020018281526020019250505060405180910390f35b341561017757600080fd5b61019160048080356000191690602001909190505061027e565b6040518082815260200191505060405180910390f35b60016020528060005260406000206000915090508060000154908060010154905082565b600060016000836000191660001916815260200190815250602060ff161115156101f457600080fd5b600180600083600019166000191681526020019081526020016000206001016000828254019250508190555050565b6000600160008360001916600019168152602001908152602001600020600001549050919050565b60008181548110151561025a57fe5b90600052602060002090600202016000915090508060000154908060010154905082565b60006001600083600019166000191681526020019081526020016000206001015490509190505600a165627a7a723058205f2602317e3f6ad69217ea1bff0a4482d45922ead088543f2eb059cef4cb1f630029",
  "source": "pragma solidity ^0.4.18;\n\ncontract Voting {\n\n\tParty[] public parties;\n\tmapping(bytes32 => Party) public partyByName;\n\n\tstruct Party {\n\t\tbytes32 name;\n\t\tuint voteCount;\n\t}\n\n\tfunction Voting(bytes32[] partyNames) public {\n\t\tfor (uint i = 0; i < partyNames.length; i++) {\n\t\t\tparties.push(Party({\n\t\t\t\tname: partyNames[i],\n\t\t\t\tvoteCount: 0\n\t\t\t}));\n\t\t}\n\t}\n\n\tfunction getVoteCountForParty(bytes32 partyName) \n\t\tpublic\n\t\tview\n\t\treturns (uint)\n\t{\n\t  return partyByName[partyName].voteCount;\n\t}\n\n\tfunction voteForParty(bytes32 partyName) \n\t\tpublic\n\t{\n\t\trequire(partyByName[partyName].name.length > 0);\n\t\tpartyByName[partyName].voteCount += 1;\n\t}\n\n\tfunction getName(bytes32 partyName) \n\t\tpublic\n\t\tview\n\t\treturns (bytes32)\n\t{\n\t\treturn partyByName[partyName].name;\n\t}\n\n\t// function getWinner() public view return (Party) {\n\n\t// }\n\n}",
  "sourcePath": "/Users/sajjon/Developer/Solidity/DecentralizedCamp/2017_november/contracts/Voting.sol",
  "compiler": {
    "name": "solc",
    "version": "0.4.18+commit.9cf6e910.Emscripten.clang"
  },
  "schemaVersion": "1.0.1",
  "updatedAt": "2017-11-18T16:59:51.204Z"
}